:0505200075AE0200228F
:0505260075AE0100228A
:20053000AF8290DF0274FFF090DF037420F090DF047441F090DF06E4F090DF017491F0905A
:20055000DF0074D3F090DF0C74F8F090DF0D7420F090DF0E7403F090DF0F74A3F090DF10B6
:2005700074B9F090DF117411F090DF127407F090DF137430F090DF1403F090DF1514F090C9
:20059000DF16746CF090DF177403F090DF187440F090DF197491F090DF1A7456F090DF1B24
:2005B0007410F090DF1C74EAF090DF1D742AF090DF1EE4F090DF1F740BF090DF237488F0E8
:2005D00090DF247431F090DF25740BF090DF2E74C0F0BF00028008BF010280220206699071
:2005F000DF07740CF090DF08E4F090DF097422F090DF0A74B1F090DF0B743BF0805F90DF57
:20061000047445F090DF017491F090DF0074D3F090DF0C74F8F090DF0D7484F090DF0E74E6
:2006300013F090DF0F7423F090DF1074B9F090DF117424F090DF237488F090DF07740CF09A
:2006500090DF08E4F090DF097422F090DF0A74B1F090DF0B743BF080047582012275820005
:010670002267
:200671007E407F83EE24FFFCEF34FFFD8C068D07EC4D70F075C689E5BE30E6FB75C680E5A6
:08069100BE30E6FB43BE04226B
:20069900AE82AF8375BCFF75BCFF7800E2FC08E2FD8C028D031CBCFF011DEA4B600E8E827C
:1D06B9008F83E0F5BDA3AE82AF8380E5AFBD7E00ACBC7D00EC4EF582ED4FF58322C0
:2006D6007811E4F278127428F290F0711209617E717FF08FD57E717FF08ED47E797FF08FA9
:2006F600D37E797FF08ED222E58275F008A42471FE74F035F0FF7802E2FC08E2FB8E828FBA
:2007160083EBF08E828F83A3ECF08E828F83A3A37804E2FC08E2FBEBF08E828F83A3A3A337
:20073600ECF074062EF582E43FF5837806E2F074072EF582E43FF5837807E2F022E58275B3
:20075600F008A42471FE74F035F0FF8E828F83A3A3A3A3780AE2FD53051F7808E24205EDB0
:20077600F08E828F83A3A3A3A3A37809E254FFFE08E25400EEF022E58275F008A42471FE25
:1A07960074F035F0FF780BE2FC08E2FB8E828F83EBF08E828F83A3ECF022BB
:2007B00090F099120A60E582FF700122BF0600500302082A90F09DE0FEBE014E90F099E04E
:2007D000FDA3E0FE9003FEE493FB740193FCEDB50306EEB50402800E90F099E0FDA3E0FE2B
:2007F000BDFF27BEFF24784A7494F20874F1F27849EFF290F099120F2DE582FEFD600A78BD
:200810002CEDF290F194020AC2227827EFF2C2037828E4F290F099121D952290F099120CC7
:2008300084E582FF700122BF060050030208A690F09DE0FEBE014E90F099E0FDA3E0FE9054
:2008500003FEE493FB740193FCEDB50306EEB50402800E90F099E0FDA3E0FEBDFF27BEFF18
:2008700024784A7494F20874F1F27849EFF290F099120F2DE582FEFD600A782FEDF290F14D
:2008900094020CE6227827EFF2C20378287401F290F099121D95227822740DF208E4F20860
:2008B0007460F290F099121B5DE582FF700122C007121D56D007BF0600405E90F09DE0FE45
:2008D000BE015690F099E0FDA3E0FE9003FEE493FB740193FCEDB50306EEB50402800E9003
:2008F000F099E0FDA3E0FEBDFF2FBEFF2C784A7494F20874F1F27849EFF290F099120F2D09
:20091000E582FEFD60127827EDF2C203780D7928E2F390F194021D9522782FEFF290F09929
:03093000020CE6D0
:20093300AE82AF83780EE2FC08E2FD7810E2FB8B021BEA60188C828D83E0FAA3AC82AD838F
:200953008E828F83EAF0A3AE82AF8380E222AE82AF837812E2FD8D041DEC600F8E828F8309
:200973007811E2F0A3AE82AF8380EB22AE82AF837813E2FC08E2FD7815E2FB8B021BEA6069
:2009930024C0038E828F83E0FAA3AE82AF838C828D83E0FBA3AC82AD83EAB50304D0038069
:2009B300DAD003D322C322AE82AF837819E4F27816E2FB08E2FC7818E2FA8A051AED6024FD
:2009D300C0028E828F83E0FDA3AE82AF838B828C83E0FAA3AB82AC83EA62057819E24DF246
:2009F300D00280D67819E224FF22AE82AF837D00ED2EFBE43FFC781AE22DF58208E23400BA
:120A1300F583E0FA8B828C83F0EA60030D80E18D822287
:0E04E200C202781E7480F2781FE4F27820F2D5
:201A6D00AF82781DEFF27821E2781CF222C2A890DF04E0FF30E0047F0080027F01EF248F9C
:201A8D00FFE434F2FE780274D9F20874DFF27804EFF208EEF278067413F278077411F27585
:201AAD0082010206FEC2A890DF04E0FF30E0047F0080027F01EF248EFFE434F3FE780474A6
:201ACD00D9F20874DFF27802EFF208EEF278067413F278077441F27582010206FE90DF0410
:201AED00E0FF30E01378087420F2780974FFF208E4F275820102075390DF02E07809F208ED
:201B0D00E4F27808F275820102075375E10490F48DE4F0A3F090F48FF0A3F0A3F0A3F090FE
:201B2D00F493F0A3F0A3F0A3F090F497F0A3F0A3F0A3F090F49BF0A3F0A3F0A3F090F49FB9
:201B4D00F0A3F0A3F0A3F07821F2758200021A6DAF83E5827825F208EFF220010475820097
:201B6D002290F28FE0FEBE0900501C90F49FE02401F0A3E03400F0A3E03400F0A3E03400F7
:201B8D00F0C2017582002274FD2EFC248FFAE434F2FB90DF04E0FF30E05CC0048E047D008E
:201BAD00780074FF2CF274FF3D08F290F28FC003C002120699AC82AD83D002D0038A828B84
:201BCD0083A3A3E0FEA3E0FFECB50609EDB50705D004021C62D004C20190F497E02401F076
:201BED00A3E03400F0A3E03400F0A3E03400F0121D5675820022C0048E057F007800ED24E6
:201C0D00FEF2EF34FF08F290F290C004C003C002120699AE82AF83D002D003D0048A828B2D
:201C2D0083A3A3E0FCA3E0FDEEB50408EFB50504D0048021D004C20190F497E02401F0A357
:201C4D00E03400F0A3E03400F0A3E03400F0121D567582002290F48DE4F0A3F07825E2FE92
:201C6D0008E2FF8E828F83780E748FF20874F2F27810ECF2C004C003C002120933D002D0D2
:201C8D0003D0048A828B83E0FAA3E0FB7825E2F58208E2F583EAF0EBA3F07822E2FD08E2DB
:201CAD00FE08E2FF90F290E0FB30E6047B0180027B008D828E838FF0EB1218CCC20190F4E9
:201CCD0093E02401F0A3E03400F0A3E03400F0A3E03400F08C8222C0E0C082C083C0D07520
:201CED00D008759B00E5E930E702C202E5E930E403100200E5E930E41E20021BD20175E9DF
:201D0D00EF90DF3A781EE0F290DF39E0FF781FF290DF387820E0F2E5E9FF30E0052002028F
:201D2D00D200E5E930E31690FCD5E02401F0A3E03400F0A3E03400F0A3E03400F075E90024
:201D4D00D0D0D083D082D0E032AF9A74FE5FF59A75E104C2A0781DE2F58212053075D682E8
:201D6D00121A7A121AEAC289AFD174FD5FF5D143D60275E900759119439A01C202C200C27B
:201D8D000112173F75E10222AE82AF8330030BC007C00612174AD006D0077827E2FC7D000C
:201DAD00C374FC9C74808DF063F08095F050012278277929E22403F3AC9A74FE5CF59A75B6
:201DCD00E104781CE2F582C007C00612053075D682121AB2121AEA7811E4F2781214F29010
:201DED00F38E120961D006D0078E038F04780EEBF208ECF278277910E2F390F38EC007C02A
:201E0D0006120933D006D0077827E2248EFBE434F3FC7828E260027440FA90F38FF08E82DB
:201E2D008F83E0FEA3E0FF8B828C83EEF0EFA3F090DF04E0FF30E03C90F38E7829E2F07411
:201E4D00022BFEE43CFF7829E2FA7D00780074FF2AF274FF3D08F290F38EC007C0061206CA
:201E6D0099AA82AD83D006D0078E828F83EAF0EDA3F0803B90DF02E090F38EF074022BFB8E
:201E8D00E43CFC7829E2FD7F007800ED24FEF2EF34FF08F290F38FC004C003120699AE820B
:201EAD00AF83D003D0048B828C83EEF0EFA3F0D2A0759190C289C2A875E900439A01AFD147
:201ECD0074FD5FF5D143D602D20220030375E1032002FD121D5690F48FE02401F0A3E0348E
:0D1EED0000F0A3E03400F0A3E03400F02288
:041A69000000000079
:200A2500E4F522F523F524F52543F10143FE2043F43075C21875C50C7586C075C4827F00E4
:200A4500EF2427F876000FBF010040F4AF9A74FB5FF59AD2AAD2E943A80422AF83E58278E7
:200A65002AF208EFF27D007C00EC2427F9E76037ED2428F88603ED75F0FBA424A3FA74F4F1
:200A850035F0FF780EEAF208EFF27810EBF2782AE2F58208E2F583C003C001120933D0017D
:200AA500D00377008B82220C8C05BC010040BA75820022AF8230E9FD8FC1C2E922AE82AF08
:200AC50083758222C007C006120AB8758269120AB8782CE2F582120AB8D006D007782CE2DC
:200AE500FD8D041DEC601E8E828F83E0FCA3AE82AF838C82C007C006C005120AB8D005D000
:200B050006D00780DC22AD82AE839003FEE493FB740193FC90F699EBF0ECA3F090F69BE490
:200B2500F0A3F090F69D04F090F69E7411F0781AEDF208EEF290F69F1209FDAF82782C749E
:200B4500062FF290F699020AC2C0E0C0F0C082C083C0D075D018AFC1E52624FC5003020CBE
:200B650022E52675F003A4900B7073020B7C020B8A020BA1020BDDBF22028003020C2275F6
:200B85002601020C22BF6906752602020C22BF22028003020C22752601020C22EF24044045
:200BA50005BF01005006752601020C22752900E5292427F9E76004052980F474FF2529505B
:200BC500087529007526008054E5292428F8A61F752A007526038045E52975F0FBA424A309
:200BE500FD74F435F0FEAC2A052AEC2DF582E43EF583EFF0E5292428F9E7FFB52A1FE52915
:200C05002427F8760175260074012522F522E43523F523E43524F524E43525F525D0D0D035
:080C250083D082D0F0D0E03250
:200C2D00E4F52BF52CF52DF52EAFFF743F5F4440F5FFAFF174FD5FF5F143FD1043F3307584
:200C4D00FA1875FC0C7F00EF2430F876000FBF030040F475F8C075FB8243A908AFB974F7DD
:200C6D005FF5B943FD08C283AF9A74F75FF59AD2ABD2EA43A80822AF83E582782DF208EFB6
:200C8D00F27D007C00EC2430F9E76037ED2433F88603ED75F0FBA42494FA74F735F0FF7836
:200CAD000EEAF208EFF27810EBF2782DE2F58208E2F583C003C001120933D001D0037700A2
:200CCD008B82220C8C05BC030040BA75820022AF8230EAFD8FF9C2EA22AE82AF8375822250
:200CED00C007C006120CDC758269120CDC782FE2F582120CDCD006D007782FE2FD8D041D2B
:200D0D00EC601E8E828F83E0FCA3AE82AF838C82C007C006C005120CDCD005D006D00780FD
:200D2D00DC22AD82AE839003FEE493FB740193FC90FB80EBF0ECA3F090FB82E4F0A3F090D8
:200D4D00FB8404F090FB857411F0781AEDF208EEF290FB861209FDAF82782F74062FF29009
:200D6D00FB80020CE6C0E0C0F0C082C083C0D075D010AFF9E52F24FC5003020E46E52F752F
:200D8D00F003A4900D9473020DA0020DAE020DC5020E01BF22028003020E46752F01020E49
:200DAD0046BF6906752F02020E46BF22028003020E46752F01020E46EF24044005BF0100E3
:200DCD005006752F01020E46753600E5362430F9E76004053680F474FD25365008753600D9
:200DED00752F008054E5362433F8A617753700752F038045E53675F0FBA42494FD74F735BB
:200E0D00F0FEAC370537EC2DF582E43EF583EFF0E5362433F9E7FFB5371FE5362430F87676
:200E2D0001752F007401252BF52BE4352CF52CE4352DF52DE4352EF52ED0D0D083D082D0CE
:040E4D00F0D0E032CF
:080E510075C9AB75C95B80FE99
:040400000204893237
:03040B00020ED00E
:03041300020B4E8B
:03041B00020D725D
:0104230032A6
:01042B00329E
:010433003296
:01043B00328E
:010443003286
:03044B0002176134
:010453003276
:01045B00326E
:010463003266
:01046B00325E
:010473003256
:01047B00324E
:03048300021CE474
:1004F000783074A0F2087486F2087401F208E4F20D
:030502000204866A
:03048600020E85DE
:200E590075C90875C9A875C9581206711213921206D61212481217F8120A25120C2DD2AFEF
:200E7900120EAA12119F121B18021D56120E59C207121827901A4175F080120D2F75C9A87C
:110E990075C9581211DB1207B012082B1208A780EC79
:1E1A41004F70656E4C53542076312E302D312D67363161366636332D646972747900C5
:200EAA0075F203C2A9C20422C2A9C2047848E4F27848E2901A5F93FF74304FF5B6C28DD2A8
:200ECA00A9223004FD22C0E0C082C083C0D075D0087848E2FF7848E22401F2EF2F2434F91F
:200EEA00AEBBE4CEC4CE6ECE54F0CE6EFFE5BAC4540FFD7C00420EEC420FEEF309EFF37870
:200F0A0048E2B40A004006D204C2A9800D7848E2901A5F93FF74304FF5B6D0D0D083D082AB
:030F2A00D0E032E2
:0A1A5F0000010203040506070E0F44
:200F2D00AF83E582784CF208EFF2784AE2FC08E2FD9003FEE493FA740193FB8C828D83EAD8
:200F4D00F0EBA3F074022CFAE43DFB784CE22402F58208E23400F583E0FEA3E0FF8A828B8E
:200F6D0083EEF0EFA3F08C828D83A3A3A3A37401F0784CE22406FE08E23400FF8E038F0265
:200F8D0074062CF538E43DF539784FE538F208E539F274052CF53AE43DF53B853A82853B0E
:200FAD008374FFF0784E7406F2784CE22405F58208E23400F583E0F53C7410B53C028041E7
:200FCD007412B53C0280527413B53C030210787414B53C030210A47415B53C0302114C7432
:200FED0017B53C030210B77419B53C0302111D741AB53C030210E474FFB53C02800F0211DF
:20100D0099853A82853B837410F0021199853A82853B8374FFF00211997849E2B40A005042
:20102D000F853A82853B837410F0120E510211998B828A83E0F53DA3E0F53EA3E0F53FA343
:20104D00E0F540853D82853E83853FF01211A8E582700C853A82853B837410F00211998559
:20106D003A82853B8374FFF002119930061D853A82853B837414F0784FE2F58208E2F58384
:20108D001213C1784E740EF2021199853A82853B8374FFF0021199853A82853B837410F0EC
:2010AD008B828A83121478021199853A82853B837418F0784FE2FA08E2FB8A828B83780E97
:2010CD007487F20874FCF27810744EF2120933784E7454F2021199853A82853B837410F0FE
:2010ED0090FC7B7811E4F278127408F2C007C006120961D006D0078E028F03780EEAF20843
:20110D00EBF278107408F290FC7B120933021199853A82853B83741BF0AA38AB398A068B0A
:20112D00078E828F837E7B7FFC780EEEF208EFF278107408F2120933784E740EF2804D85E6
:20114D003A82853B837416F0784FE2F58208E2F5837401F0784FE22401F58208E23400F5CA
:20116D00837401F0781CE2FF781C7401F278277408F2D20378287401F28C828D83C007122A
:12118D001D95D007781CEFF2784EE4F2784EE2F5822275
:20119F00900258E4F5F00211A8AC82AD83AEF0FFC374809C743A9D74099EE49F5004758240
:2011BF00012290FC83EC2541F0ED3542A3F0EE3543A3F0EF3544A3F07582002290FC83E0A9
:2011DF00FCA3E0FDA3E0FEA3E0FF90FC83E0F5F0A3E042F0A3E042F0A3E045F06012C3E561
:2011FF00419CE5429DE5439EE5449F4003120E51E54B454C7032754B64F54C12125E120E83
:20121F00B290F48DE02401F0A3E03400F090F48DE0FEA3E0FFC3EE9432EF9400400A90F417
:09123F008DE4F0A3F0021D56221B
:201248007811E4F27812744EF290FC8712096190FCAA7480F02290FC87E4F0D20510AF029F
:20126800C20590FC88E541F0E542A3F0E543A3F0E544A3F090FC8CE522F0E523A3F0E52491
:20128800A3F0E525A3F090FC90E52BF0E52CA3F0E52DA3F0E52EA3F0A20592AF3004147863
:2012A8000E7434F20874F0F278107414F290FC96120933D20510AF02C20590FCAA781EE2A1
:2012C800F090FCAB781FE2F090FCAC7820E2F090FCD5E0FCA3E0FDA3E0FEA3E0FF90FCB1D7
:2012E800ECF0EDA3F0EEA3F0EFA3F0A20592AF90FC94781DE2F090FC95781CE2F090F48F7E
:20130800E0FCA3E0FDA3E0FEA3E0FF90FCADECF0EDA3F0EEA3F0EFA3F090F493E0FCA3E058
:20132800FDA3E0FEA3E0FF90FCB5ECF0EDA3F0EEA3F0EFA3F090F497E0FCA3E0FDA3E0FE0D
:20134800A3E0FF90FCB9ECF0EDA3F0EEA3F0EFA3F090F49BE0FCA3E0FDA3E0FEA3E0FF9051
:20136800FCBDECF0EDA3F0EEA3F0EFA3F090F49FE0FCA3E0FDA3E0FEA3E0FF90FCC1ECF0A2
:0A138800EDA3F0EEA3F0EFA3F022B6
:02050000C20631
:20139200E4F541F542F543F544F54BF54CC206E4F545F546F547F548F549F54A75DB6975B3
:2013B200DA7775E54475E40243D84043B80222AE82AF83C2B98E828F83E545F0E546A3F080
:2013D200E547A3F0E548A3F0AA49AB4A8A058B047852E5E2F208E4F2ABE37A007852E24A17
:2013F200F208E24BF2D2B974042EF54DE43FF54E7865EDF208ECF208E4F208F290424075E8
:20141200F00FE41218E785824F85835085F051F55278527965E2F308E209F309E4F309F3CC
:20143200900025E4F5F01218E7AC82AD83AEF0FFEC254FFCED3550FDEE3551FEEF3552FF5E
:20145200854D82854E83ECF0EDA3F0EEA3F0EFA3F022C2B9AC45AD46AE47AF48D2B98C826B
:201472008D838EF0EF22AE82AF83A3A3A3A3E0FAA3E0FBA3E0FCA3E0FD785C7440F2087480
:2014920042F208740FF208E4F28A828B838CF0EDC007C00612182CAA82AB83ACF0FDD0067C
:2014B200D007C2B98A498B4A8E828F83E0F545A3E0F546A3E0F547A3E0F548D206D2B92222
:2014D200AF83E5827856F208EFF27856E22404FC08E23400FD8C828D83E0F555A3E0F556B3
:2014F200A3E0F557A3E0F5587854E2F55308E2F554855382855483A3A3A3A3E0FAA3E0FB78
:20151200A3E0FEA3E0FFEA2555FAEB3556FBEE3557FEEF3558FF8C828D83EAF0EBA3F0EE90
:20153200A3F0EFA3F08C828D83E0F555A3E0F556A3E0F557A3E0F558C3E49A74CA9B749AA7
:201552009E743B9F5055AA55E5562436FBE5573465FEE55834C4FF8C828D83EAF0EBA3F0DC
:20157200EEA3F0EFA3F07856E2F58208E2F583E0FCA3E0FDA3E0FEA3E0FF0CBC00090DBDD3
:2015920000050EBE00010F7856E2F58208E2F583ECF0EDA3F0EEA3F0EFA3F07856E2F58249
:2015B20008E2F583E0F555A3E0F556A3E0F557A3E0F558855382855483E0FAA3E0FBA3E08F
:2015D200FEA3E0FFEA2555FAEB3556FBEE3557FEEF3558FF7856E2F58208E2F583EAF0EB69
:2015F200A3F0EEA3F0EFA3F022AF83E582785AF208EFF2785AE22404FC08E23400FD8C82DA
:201612008D83E0F553A3E0F554A3E0F555A3E0F5567858E2F55908E2F55A74042559F5579E
:20163200E4355AF558855782855883E0FAA3E0FBA3E0FEA3E0FFC3E5539AE5549BE5559E7E
:20165200E5569F5055AA5374CA2554FB749A3555FE743B3556FF8C828D83EAF0EBA3F0EE17
:20167200A3F0EFA3F0785AE2F58208E2F583E0FAA3E0FBA3E0FEA3E0FF1ABAFF091BBBFFAA
:20169200051EBEFF011F785AE2F58208E2F583EAF0EBA3F0EEA3F0EFA3F08C828D83E0F55D
:2016B20053A3E0F554A3E0F555A3E0F556855782855883E0FAA3E0FBA3E0FEA3E0FFE5530D
:2016D200C39AFAE5549BFBE5559EFEE5569FFF8C828D83EAF0EBA3F0EEA3F0EFA3F0785AD8
:2016F200E2F58208E2F583E0F553A3E0F554A3E0F555A3E0F556855982855A83E0FAA3E06F
:20171200FBA3E0FEA3E0FFE553C39AFAE5549BFBE5559EFEE5569FFF785AE2F58208E2F5A2
:2017320083EAF0EBA3F0EEA3F0EFA3F022AFE474BF5FF5E475E6C02278517403F2E5E2B5AE
:20175200DC0280F9AFE474BF5FF5E475E64422C0E0C0D075D008E5E430E55CAFE474DF5F65
:20177200F5E474012549F549E4354AF54AE54B454C6009154B74FFB54B02154CC3E54994D6
:20179200E8E54A9403405AE4F549F54A042545F545E43546F546E43547F547E43548F54812
:2017B20074012541F541E43542F542E43543F543E43544F544802AE5E430E625E5E630E7BA
:2017D2000575E600801BAFE474BF5FF5E47851E214F27851E2700A75E103AFE674BF5FF5B3
:0617F200E6D0D0D0E03289
:2017F800AFF374BF5FF5F343FD40D286AFF3747F5FF5F343FD80AFF574FE5FF5F543FF019F
:14181800C2A090DF2F745BF090DF30741CF022A207928722D8
:20182C00AF82AE83ADF0FC7860EFF208EEF208EDF208ECF27A007B007E007F007D207863C9
:20184C00E23392087860E225E0F208E233F208E233F208E233F2EA2AFAEB33FBEE33FEEFBA
:20186C0033FF300803430201785CC3E2F5F0EA95F008E2F5F0EB95F008E2F5F0EE95F00853
:20188C00E2F5F0EF95F04022785CD3E29AF4B3FAB308E29BF4B3FBB308E29EF4B3FEB30866
:2018AC00E29FF4FF7860E24401F2ED14FCFD708E7860E2F58208E2F58308E2F5F008E22251
:0604B800E478FFF6D8FD18
:200496007904E94400601B7A01901A6978D57593FCE493F2A308B800020593D9F4DAF275CE
:0204B60093FFB2
:1B18CC0020F71130F6138883A88220F509F6A8837583002280FEF280F5F0221B
:2018E700AF82AE83ADF0FC7869EFF208EEF208EDF208ECF27869E2FF7867E28FF0A4FFAD1D
:20190700F0786FEFF208EDF27869E2FF7865E28FF0A4FFADF0786DEFF208EDF27870E2FF6B
:20192700786CE2FE7865E28EF0A42F7870F27870E2FF786BE2FE7866E28EF0A42F7870F27B
:20194700786FE2FE08E2FF786BE2FD7865E28DF0A4ABF02EFEEB3FFF786FEEF208EFF27816
:201967006FE2FE08E2FF786AE2FD7866E28DF0A4ABF02EFEEB3FFF786FEEF208EFF2786A04
:20198700E2FF7867E28FF0A4786CF2786AE2FF7865E28FF0A4FFADF0786AEFF208EDF27842
:2019A70069E2FF7868E28FF0A47868F27869E2FF7866E28FF0A4FFADF07866EFF208EDF238
:2019C7007865E4F27869F2786DE2F55308E2F55408E2F55508E2F5567869E2FA08E2FB0825
:2019E700E2FE08E2FFEA2553F553EB3554F554EE3555F555EF3556F556786DE553F208E52D
:201A070054F208E555F208E556F2786DE208E208E208E27865E2FC08E2FD08E2FE08E2FF18
:161A2700EC2553FCED3554FDEE3555FEEF35568C828D838EF02228
:2004BE007871E84400600A79007593F0E4F309D8FC7864E8440C600C790D90F071E4F0A30C
:0404DE00D8FCD9FA73
:0D04890075815A121A3DE582600302048657
:041A3D00758200228C
:00000001FF
